{
  "_format": "hh3-artifact-1",
  "contractName": "TaskMarketplace",
  "sourceName": "contracts/TaskMarketplace.sol",
  "abi": [
    {
      "inputs": [],
      "stateMutability": "nonpayable",
      "type": "constructor"
    },
    {
      "anonymous": false,
      "inputs": [
        {
          "indexed": true,
          "internalType": "uint256",
          "name": "taskId",
          "type": "uint256"
        },
        {
          "indexed": true,
          "internalType": "address",
          "name": "creator",
          "type": "address"
        },
        {
          "indexed": true,
          "internalType": "address",
          "name": "worker",
          "type": "address"
        },
        {
          "indexed": false,
          "internalType": "uint256",
          "name": "reward",
          "type": "uint256"
        }
      ],
      "name": "TaskApproved",
      "type": "event"
    },
    {
      "anonymous": false,
      "inputs": [
        {
          "indexed": true,
          "internalType": "uint256",
          "name": "taskId",
          "type": "uint256"
        }
      ],
      "name": "TaskCancelled",
      "type": "event"
    },
    {
      "anonymous": false,
      "inputs": [
        {
          "indexed": true,
          "internalType": "uint256",
          "name": "taskId",
          "type": "uint256"
        },
        {
          "indexed": true,
          "internalType": "address",
          "name": "worker",
          "type": "address"
        },
        {
          "indexed": false,
          "internalType": "uint256",
          "name": "reward",
          "type": "uint256"
        }
      ],
      "name": "TaskCompleted",
      "type": "event"
    },
    {
      "anonymous": false,
      "inputs": [
        {
          "indexed": true,
          "internalType": "uint256",
          "name": "taskId",
          "type": "uint256"
        },
        {
          "indexed": true,
          "internalType": "address",
          "name": "creator",
          "type": "address"
        },
        {
          "indexed": false,
          "internalType": "uint256",
          "name": "reward",
          "type": "uint256"
        },
        {
          "indexed": false,
          "internalType": "uint256",
          "name": "deadline",
          "type": "uint256"
        }
      ],
      "name": "TaskCreated",
      "type": "event"
    },
    {
      "anonymous": false,
      "inputs": [
        {
          "indexed": true,
          "internalType": "uint256",
          "name": "taskId",
          "type": "uint256"
        },
        {
          "indexed": true,
          "internalType": "address",
          "name": "worker",
          "type": "address"
        }
      ],
      "name": "TaskTaken",
      "type": "event"
    },
    {
      "anonymous": false,
      "inputs": [
        {
          "indexed": true,
          "internalType": "uint256",
          "name": "taskId",
          "type": "uint256"
        },
        {
          "indexed": true,
          "internalType": "address",
          "name": "worker",
          "type": "address"
        }
      ],
      "name": "WorkSubmitted",
      "type": "event"
    },
    {
      "stateMutability": "payable",
      "type": "fallback"
    },
    {
      "inputs": [
        {
          "internalType": "uint256",
          "name": "taskId",
          "type": "uint256"
        }
      ],
      "name": "approveWork",
      "outputs": [],
      "stateMutability": "nonpayable",
      "type": "function"
    },
    {
      "inputs": [
        {
          "internalType": "uint256",
          "name": "taskId",
          "type": "uint256"
        }
      ],
      "name": "cancelTask",
      "outputs": [],
      "stateMutability": "nonpayable",
      "type": "function"
    },
    {
      "inputs": [
        {
          "internalType": "uint256",
          "name": "taskId",
          "type": "uint256"
        }
      ],
      "name": "completeTask",
      "outputs": [],
      "stateMutability": "nonpayable",
      "type": "function"
    },
    {
      "inputs": [
        {
          "internalType": "string",
          "name": "title",
          "type": "string"
        },
        {
          "internalType": "string",
          "name": "description",
          "type": "string"
        },
        {
          "internalType": "uint256",
          "name": "deadline",
          "type": "uint256"
        }
      ],
      "name": "createTask",
      "outputs": [
        {
          "internalType": "uint256",
          "name": "",
          "type": "uint256"
        }
      ],
      "stateMutability": "payable",
      "type": "function"
    },
    {
      "inputs": [],
      "name": "getAllOpenTasks",
      "outputs": [
        {
          "components": [
            {
              "internalType": "uint256",
              "name": "id",
              "type": "uint256"
            },
            {
              "internalType": "address",
              "name": "creator",
              "type": "address"
            },
            {
              "internalType": "address",
              "name": "worker",
              "type": "address"
            },
            {
              "internalType": "string",
              "name": "title",
              "type": "string"
            },
            {
              "internalType": "string",
              "name": "description",
              "type": "string"
            },
            {
              "internalType": "uint256",
              "name": "reward",
              "type": "uint256"
            },
            {
              "internalType": "enum ITaskMarketplace.TaskStatus",
              "name": "status",
              "type": "uint8"
            },
            {
              "internalType": "uint256",
              "name": "createdAt",
              "type": "uint256"
            },
            {
              "internalType": "uint256",
              "name": "deadline",
              "type": "uint256"
            }
          ],
          "internalType": "struct ITaskMarketplace.Task[]",
          "name": "",
          "type": "tuple[]"
        }
      ],
      "stateMutability": "view",
      "type": "function"
    },
    {
      "inputs": [
        {
          "internalType": "address",
          "name": "user",
          "type": "address"
        }
      ],
      "name": "getBalance",
      "outputs": [
        {
          "internalType": "uint256",
          "name": "",
          "type": "uint256"
        }
      ],
      "stateMutability": "view",
      "type": "function"
    },
    {
      "inputs": [],
      "name": "getPlatformFeePercentage",
      "outputs": [
        {
          "internalType": "uint256",
          "name": "",
          "type": "uint256"
        }
      ],
      "stateMutability": "pure",
      "type": "function"
    },
    {
      "inputs": [
        {
          "internalType": "uint256",
          "name": "taskId",
          "type": "uint256"
        }
      ],
      "name": "getTask",
      "outputs": [
        {
          "components": [
            {
              "internalType": "uint256",
              "name": "id",
              "type": "uint256"
            },
            {
              "internalType": "address",
              "name": "creator",
              "type": "address"
            },
            {
              "internalType": "address",
              "name": "worker",
              "type": "address"
            },
            {
              "internalType": "string",
              "name": "title",
              "type": "string"
            },
            {
              "internalType": "string",
              "name": "description",
              "type": "string"
            },
            {
              "internalType": "uint256",
              "name": "reward",
              "type": "uint256"
            },
            {
              "internalType": "enum ITaskMarketplace.TaskStatus",
              "name": "status",
              "type": "uint8"
            },
            {
              "internalType": "uint256",
              "name": "createdAt",
              "type": "uint256"
            },
            {
              "internalType": "uint256",
              "name": "deadline",
              "type": "uint256"
            }
          ],
          "internalType": "struct ITaskMarketplace.Task",
          "name": "",
          "type": "tuple"
        }
      ],
      "stateMutability": "view",
      "type": "function"
    },
    {
      "inputs": [
        {
          "internalType": "address",
          "name": "creator",
          "type": "address"
        }
      ],
      "name": "getTasksByCreator",
      "outputs": [
        {
          "internalType": "uint256[]",
          "name": "",
          "type": "uint256[]"
        }
      ],
      "stateMutability": "view",
      "type": "function"
    },
    {
      "inputs": [
        {
          "internalType": "address",
          "name": "worker",
          "type": "address"
        }
      ],
      "name": "getTasksByWorker",
      "outputs": [
        {
          "internalType": "uint256[]",
          "name": "",
          "type": "uint256[]"
        }
      ],
      "stateMutability": "view",
      "type": "function"
    },
    {
      "inputs": [],
      "name": "getTotalTasks",
      "outputs": [
        {
          "internalType": "uint256",
          "name": "",
          "type": "uint256"
        }
      ],
      "stateMutability": "view",
      "type": "function"
    },
    {
      "inputs": [],
      "name": "owner",
      "outputs": [
        {
          "internalType": "address",
          "name": "",
          "type": "address"
        }
      ],
      "stateMutability": "view",
      "type": "function"
    },
    {
      "inputs": [],
      "name": "platformFeeBalance",
      "outputs": [
        {
          "internalType": "uint256",
          "name": "",
          "type": "uint256"
        }
      ],
      "stateMutability": "view",
      "type": "function"
    },
    {
      "inputs": [
        {
          "internalType": "uint256",
          "name": "taskId",
          "type": "uint256"
        }
      ],
      "name": "submitWork",
      "outputs": [],
      "stateMutability": "nonpayable",
      "type": "function"
    },
    {
      "inputs": [
        {
          "internalType": "uint256",
          "name": "taskId",
          "type": "uint256"
        }
      ],
      "name": "takeTask",
      "outputs": [],
      "stateMutability": "nonpayable",
      "type": "function"
    },
    {
      "inputs": [],
      "name": "withdraw",
      "outputs": [],
      "stateMutability": "nonpayable",
      "type": "function"
    },
    {
      "inputs": [],
      "name": "withdrawPlatformFees",
      "outputs": [],
      "stateMutability": "nonpayable",
      "type": "function"
    },
    {
      "stateMutability": "payable",
      "type": "receive"
    }
  ],
  "bytecode": "0x6080604052348015600e575f5ffd5b503360045f6101000a81548173ffffffffffffffffffffffffffffffffffffffff021916908373ffffffffffffffffffffffffffffffffffffffff1602179055505f6005819055506137e1806100635f395ff3fe608060405260043610610101575f3560e01c80637a3a27ea11610094578063c4c1152311610063578063c4c1152314610352578063d0b7830b1461037a578063e1e2955814610390578063e3c98ba0146103b8578063f8b2cb4f146103e25761011f565b80637a3a27ea146102ac5780637eec20a8146102d65780638da5cb5b146102fe57806394730b92146103285761011f565b80633d01e0fa116100d05780633d01e0fa146101f057806341a4e30a1461021857806356deb1101461024857806370337a78146102705761011f565b80631d65e77e1461013857806331a40131146101745780633c93b905146101b05780633ccfd60b146101da5761011f565b3661011f573460065f828254610117919061239a565b925050819055005b3460065f828254610130919061239a565b925050819055005b348015610143575f5ffd5b5061015e600480360381019061015991906123ff565b61041e565b60405161016b9190612624565b60405180910390f35b34801561017f575f5ffd5b5061019a6004803603810190610195919061266e565b6106c6565b6040516101a79190612741565b60405180910390f35b3480156101bb575f5ffd5b506101c4610759565b6040516101d19190612770565b60405180910390f35b3480156101e5575f5ffd5b506101ee610762565b005b3480156101fb575f5ffd5b50610216600480360381019061021191906123ff565b6108d3565b005b610232600480360381019061022d91906127ea565b610ce0565b60405161023f9190612770565b60405180910390f35b348015610253575f5ffd5b5061026e600480360381019061026991906123ff565b610ff9565b005b34801561027b575f5ffd5b506102966004803603810190610291919061266e565b61121e565b6040516102a39190612741565b60405180910390f35b3480156102b7575f5ffd5b506102c06112b1565b6040516102cd9190612770565b60405180910390f35b3480156102e1575f5ffd5b506102fc60048036038101906102f791906123ff565b6112b9565b005b348015610309575f5ffd5b5061031261154c565b60405161031f919061288a565b60405180910390f35b348015610333575f5ffd5b5061033c611571565b6040516103499190612a27565b60405180910390f35b34801561035d575f5ffd5b50610378600480360381019061037391906123ff565b611938565b005b348015610385575f5ffd5b5061038e611b2a565b005b34801561039b575f5ffd5b506103b660048036038101906103b191906123ff565b611cd5565b005b3480156103c3575f5ffd5b506103cc611f58565b6040516103d99190612770565b60405180910390f35b3480156103ed575f5ffd5b506104086004803603810190610403919061266e565b611f5e565b6040516104159190612770565b60405180910390f35b6104266122e1565b815f8111801561043857506005548111155b610477576040517f08c379a000000000000000000000000000000000000000000000000000000000815260040161046e90612aa1565b60405180910390fd5b5f5f8481526020019081526020015f20604051806101200160405290815f8201548152602001600182015f9054906101000a900473ffffffffffffffffffffffffffffffffffffffff1673ffffffffffffffffffffffffffffffffffffffff1673ffffffffffffffffffffffffffffffffffffffff168152602001600282015f9054906101000a900473ffffffffffffffffffffffffffffffffffffffff1673ffffffffffffffffffffffffffffffffffffffff1673ffffffffffffffffffffffffffffffffffffffff16815260200160038201805461055690612aec565b80601f016020809104026020016040519081016040528092919081815260200182805461058290612aec565b80156105cd5780601f106105a4576101008083540402835291602001916105cd565b820191905f5260205f20905b8154815290600101906020018083116105b057829003601f168201915b505050505081526020016004820180546105e690612aec565b80601f016020809104026020016040519081016040528092919081815260200182805461061290612aec565b801561065d5780601f106106345761010080835404028352916020019161065d565b820191905f5260205f20905b81548152906001019060200180831161064057829003601f168201915b5050505050815260200160058201548152602001600682015f9054906101000a900460ff166004811115610694576106936124e8565b5b60048111156106a6576106a56124e8565b5b815260200160078201548152602001600882015481525050915050919050565b606060015f8373ffffffffffffffffffffffffffffffffffffffff1673ffffffffffffffffffffffffffffffffffffffff1681526020019081526020015f2080548060200260200160405190810160405280929190818152602001828054801561074d57602002820191905f5260205f20905b815481526020019060010190808311610739575b50505050509050919050565b5f600554905090565b5f60035f3373ffffffffffffffffffffffffffffffffffffffff1673ffffffffffffffffffffffffffffffffffffffff1681526020019081526020015f205490505f81116107e5576040517f08c379a00000000000000000000000000000000000000000000000000000000081526004016107dc90612b66565b60405180910390fd5b5f60035f3373ffffffffffffffffffffffffffffffffffffffff1673ffffffffffffffffffffffffffffffffffffffff1681526020019081526020015f20819055505f3373ffffffffffffffffffffffffffffffffffffffff168260405161084c90612bb1565b5f6040518083038185875af1925050503d805f8114610886576040519150601f19603f3d011682016040523d82523d5f602084013e61088b565b606091505b50509050806108cf576040517f08c379a00000000000000000000000000000000000000000000000000000000081526004016108c690612c0f565b60405180910390fd5b5050565b805f811180156108e557506005548111155b610924576040517f08c379a000000000000000000000000000000000000000000000000000000000815260040161091b90612aa1565b60405180910390fd5b813373ffffffffffffffffffffffffffffffffffffffff165f5f8381526020019081526020015f206001015f9054906101000a900473ffffffffffffffffffffffffffffffffffffffff1673ffffffffffffffffffffffffffffffffffffffff16146109c5576040517f08c379a00000000000000000000000000000000000000000000000000000000081526004016109bc90612c77565b60405180910390fd5b5f5f5f8581526020019081526020015f209050600260048111156109ec576109eb6124e8565b5b816006015f9054906101000a900460ff166004811115610a0f57610a0e6124e8565b5b14610a4f576040517f08c379a0000000000000000000000000000000000000000000000000000000008152600401610a4690612cdf565b60405180910390fd5b5f73ffffffffffffffffffffffffffffffffffffffff16816002015f9054906101000a900473ffffffffffffffffffffffffffffffffffffffff1673ffffffffffffffffffffffffffffffffffffffff1603610ae0576040517f08c379a0000000000000000000000000000000000000000000000000000000008152600401610ad790612d47565b60405180910390fd5b6003816006015f6101000a81548160ff02191690836004811115610b0757610b066124e8565b5b02179055505f610b1a8260050154611fa4565b90505f610b2a8360050154611fc5565b90508160065f828254610b3d919061239a565b925050819055508060035f856002015f9054906101000a900473ffffffffffffffffffffffffffffffffffffffff1673ffffffffffffffffffffffffffffffffffffffff1673ffffffffffffffffffffffffffffffffffffffff1681526020019081526020015f205f828254610bb3919061239a565b92505081905550826002015f9054906101000a900473ffffffffffffffffffffffffffffffffffffffff1673ffffffffffffffffffffffffffffffffffffffff16836001015f9054906101000a900473ffffffffffffffffffffffffffffffffffffffff1673ffffffffffffffffffffffffffffffffffffffff16877f320126ac0f44cc9ce9091ce7ce92023490feb9848de4b892369ef95c2096553384604051610c5e9190612770565b60405180910390a4826002015f9054906101000a900473ffffffffffffffffffffffffffffffffffffffff1673ffffffffffffffffffffffffffffffffffffffff16867f843af93d40addceac6932508439844b897d4df9e971db326d557e3cdaa9f3ebf83604051610cd09190612770565b60405180910390a3505050505050565b5f610cef868686863487611fe6565b5060055f815480929190610d0290612d65565b91905055505f60405180610120016040528060055481526020013373ffffffffffffffffffffffffffffffffffffffff1681526020015f73ffffffffffffffffffffffffffffffffffffffff16815260200188888080601f0160208091040260200160405190810160405280939291908181526020018383808284375f81840152601f19601f82011690508083019250505050505050815260200186868080601f0160208091040260200160405190810160405280939291908181526020018383808284375f81840152601f19601f8201169050808301925050505050505081526020013481526020015f6004811115610dff57610dfe6124e8565b5b8152602001428152602001848152509050805f5f60055481526020019081526020015f205f820151815f01556020820151816001015f6101000a81548173ffffffffffffffffffffffffffffffffffffffff021916908373ffffffffffffffffffffffffffffffffffffffff1602179055506040820151816002015f6101000a81548173ffffffffffffffffffffffffffffffffffffffff021916908373ffffffffffffffffffffffffffffffffffffffff1602179055506060820151816003019081610ecc9190612f79565b506080820151816004019081610ee29190612f79565b5060a0820151816005015560c0820151816006015f6101000a81548160ff02191690836004811115610f1757610f166124e8565b5b021790555060e08201518160070155610100820151816008015590505060015f3373ffffffffffffffffffffffffffffffffffffffff1673ffffffffffffffffffffffffffffffffffffffff1681526020019081526020015f20600554908060018154018082558091505060019003905f5260205f20015f90919091909150553373ffffffffffffffffffffffffffffffffffffffff166005547ff5ac772f880dc6ed6b50db24e062bbc51818e270ed47533fd9162e5255fa29133486604051610fe2929190613048565b60405180910390a360055491505095945050505050565b805f8111801561100b57506005548111155b61104a576040517f08c379a000000000000000000000000000000000000000000000000000000000815260040161104190612aa1565b60405180910390fd5b5f5f5f8481526020019081526020015f2090506110bf816006015f9054906101000a900460ff16826001015f9054906101000a900473ffffffffffffffffffffffffffffffffffffffff16836002015f9054906101000a900473ffffffffffffffffffffffffffffffffffffffff1633612192565b5080600801544210611106576040517f08c379a00000000000000000000000000000000000000000000000000000000081526004016110fd906130b9565b60405180910390fd5b33816002015f6101000a81548173ffffffffffffffffffffffffffffffffffffffff021916908373ffffffffffffffffffffffffffffffffffffffff1602179055506001816006015f6101000a81548160ff0219169083600481111561116f5761116e6124e8565b5b021790555060025f3373ffffffffffffffffffffffffffffffffffffffff1673ffffffffffffffffffffffffffffffffffffffff1681526020019081526020015f2083908060018154018082558091505060019003905f5260205f20015f90919091909150553373ffffffffffffffffffffffffffffffffffffffff16837f958c71e470fd97af28579d832a7e3450d0df0c2bf36b188ffc7ecf861c7d668960405160405180910390a3505050565b606060025f8373ffffffffffffffffffffffffffffffffffffffff1673ffffffffffffffffffffffffffffffffffffffff1681526020019081526020015f208054806020026020016040519081016040528092919081815260200182805480156112a557602002820191905f5260205f20905b815481526020019060010190808311611291575b50505050509050919050565b5f6002905090565b805f811180156112cb57506005548111155b61130a576040517f08c379a000000000000000000000000000000000000000000000000000000000815260040161130190612aa1565b60405180910390fd5b813373ffffffffffffffffffffffffffffffffffffffff165f5f8381526020019081526020015f206001015f9054906101000a900473ffffffffffffffffffffffffffffffffffffffff1673ffffffffffffffffffffffffffffffffffffffff16146113ab576040517f08c379a00000000000000000000000000000000000000000000000000000000081526004016113a290612c77565b60405180910390fd5b5f5f5f8581526020019081526020015f2090505f60048111156113d1576113d06124e8565b5b816006015f9054906101000a900460ff1660048111156113f4576113f36124e8565b5b148061143457506001600481111561140f5761140e6124e8565b5b816006015f9054906101000a900460ff166004811115611432576114316124e8565b5b145b611473576040517f08c379a000000000000000000000000000000000000000000000000000000000815260040161146a90613121565b60405180910390fd5b6004816006015f6101000a81548160ff0219169083600481111561149a576114996124e8565b5b0217905550806005015460035f836001015f9054906101000a900473ffffffffffffffffffffffffffffffffffffffff1673ffffffffffffffffffffffffffffffffffffffff1673ffffffffffffffffffffffffffffffffffffffff1681526020019081526020015f205f828254611512919061239a565b92505081905550837fc6eacc3aa5b2aa77b5a826b832a804ca0b71830ec74f9aa57a15edd978c31ed660405160405180910390a250505050565b60045f9054906101000a900473ffffffffffffffffffffffffffffffffffffffff1681565b60605f5f90505f600190505b60055481116115f2575f6004811115611599576115986124e8565b5b5f5f8381526020019081526020015f206006015f9054906101000a900460ff1660048111156115cb576115ca6124e8565b5b036115df5781806115db90612d65565b9250505b80806115ea90612d65565b91505061157d565b505f8167ffffffffffffffff81111561160e5761160d612dac565b5b60405190808252806020026020018201604052801561164757816020015b6116346122e1565b81526020019060019003908161162c5790505b5090505f5f90505f600190505b600554811161192e575f60048111156116705761166f6124e8565b5b5f5f8381526020019081526020015f206006015f9054906101000a900460ff1660048111156116a2576116a16124e8565b5b0361191b575f5f8281526020019081526020015f20604051806101200160405290815f8201548152602001600182015f9054906101000a900473ffffffffffffffffffffffffffffffffffffffff1673ffffffffffffffffffffffffffffffffffffffff1673ffffffffffffffffffffffffffffffffffffffff168152602001600282015f9054906101000a900473ffffffffffffffffffffffffffffffffffffffff1673ffffffffffffffffffffffffffffffffffffffff1673ffffffffffffffffffffffffffffffffffffffff16815260200160038201805461178690612aec565b80601f01602080910402602001604051908101604052809291908181526020018280546117b290612aec565b80156117fd5780601f106117d4576101008083540402835291602001916117fd565b820191905f5260205f20905b8154815290600101906020018083116117e057829003601f168201915b5050505050815260200160048201805461181690612aec565b80601f016020809104026020016040519081016040528092919081815260200182805461184290612aec565b801561188d5780601f106118645761010080835404028352916020019161188d565b820191905f5260205f20905b81548152906001019060200180831161187057829003601f168201915b5050505050815260200160058201548152602001600682015f9054906101000a900460ff1660048111156118c4576118c36124e8565b5b60048111156118d6576118d56124e8565b5b8152602001600782015481526020016008820154815250508383815181106119015761190061313f565b5b6020026020010181905250818061191790612d65565b9250505b808061192690612d65565b915050611654565b5081935050505090565b805f8111801561194a57506005548111155b611989576040517f08c379a000000000000000000000000000000000000000000000000000000000815260040161198090612aa1565b60405180910390fd5b813373ffffffffffffffffffffffffffffffffffffffff165f5f8381526020019081526020015f206002015f9054906101000a900473ffffffffffffffffffffffffffffffffffffffff1673ffffffffffffffffffffffffffffffffffffffff1614611a2a576040517f08c379a0000000000000000000000000000000000000000000000000000000008152600401611a21906131dc565b60405180910390fd5b5f5f5f8581526020019081526020015f20905060016004811115611a5157611a506124e8565b5b816006015f9054906101000a900460ff166004811115611a7457611a736124e8565b5b14611ab4576040517f08c379a0000000000000000000000000000000000000000000000000000000008152600401611aab90613244565b60405180910390fd5b6002816006015f6101000a81548160ff02191690836004811115611adb57611ada6124e8565b5b02179055503373ffffffffffffffffffffffffffffffffffffffff16847f2e1034180f85502b3a04560be6ed4c24fe9b9c9e0bd7f4e09720494ac48859fa60405160405180910390a350505050565b60045f9054906101000a900473ffffffffffffffffffffffffffffffffffffffff1673ffffffffffffffffffffffffffffffffffffffff163373ffffffffffffffffffffffffffffffffffffffff1614611bb9576040517f08c379a0000000000000000000000000000000000000000000000000000000008152600401611bb0906132ac565b60405180910390fd5b5f60065490505f8111611c01576040517f08c379a0000000000000000000000000000000000000000000000000000000008152600401611bf890613314565b60405180910390fd5b5f6006819055505f60045f9054906101000a900473ffffffffffffffffffffffffffffffffffffffff1673ffffffffffffffffffffffffffffffffffffffff1682604051611c4e90612bb1565b5f6040518083038185875af1925050503d805f8114611c88576040519150601f19603f3d011682016040523d82523d5f602084013e611c8d565b606091505b5050905080611cd1576040517f08c379a0000000000000000000000000000000000000000000000000000000008152600401611cc890612c0f565b60405180910390fd5b5050565b805f81118015611ce757506005548111155b611d26576040517f08c379a0000000000000000000000000000000000000000000000000000000008152600401611d1d90612aa1565b60405180910390fd5b813373ffffffffffffffffffffffffffffffffffffffff165f5f8381526020019081526020015f206002015f9054906101000a900473ffffffffffffffffffffffffffffffffffffffff1673ffffffffffffffffffffffffffffffffffffffff1614611dc7576040517f08c379a0000000000000000000000000000000000000000000000000000000008152600401611dbe906131dc565b60405180910390fd5b5f5f5f8581526020019081526020015f20905060016004811115611dee57611ded6124e8565b5b816006015f9054906101000a900460ff166004811115611e1157611e106124e8565b5b14611e51576040517f08c379a0000000000000000000000000000000000000000000000000000000008152600401611e4890613244565b60405180910390fd5b5f73ffffffffffffffffffffffffffffffffffffffff16816002015f9054906101000a900473ffffffffffffffffffffffffffffffffffffffff1673ffffffffffffffffffffffffffffffffffffffff1603611ee2576040517f08c379a0000000000000000000000000000000000000000000000000000000008152600401611ed990612d47565b60405180910390fd5b6002816006015f6101000a81548160ff02191690836004811115611f0957611f086124e8565b5b02179055503373ffffffffffffffffffffffffffffffffffffffff16847f2e1034180f85502b3a04560be6ed4c24fe9b9c9e0bd7f4e09720494ac48859fa60405160405180910390a350505050565b60065481565b5f60035f8373ffffffffffffffffffffffffffffffffffffffff1673ffffffffffffffffffffffffffffffffffffffff1681526020019081526020015f20549050919050565b5f6064600283611fb49190613332565b611fbe91906133a0565b9050919050565b5f5f611fd083611fa4565b90508083611fde91906133d0565b915050919050565b5f5f878790501161202c576040517f08c379a00000000000000000000000000000000000000000000000000000000081526004016120239061344d565b60405180910390fd5b6064878790501115612073576040517f08c379a000000000000000000000000000000000000000000000000000000000815260040161206a906134b5565b60405180910390fd5b5f85859050116120b8576040517f08c379a00000000000000000000000000000000000000000000000000000000081526004016120af9061351d565b60405180910390fd5b6103e8858590501115612100576040517f08c379a00000000000000000000000000000000000000000000000000000000081526004016120f790613585565b60405180910390fd5b5f8311612142576040517f08c379a0000000000000000000000000000000000000000000000000000000008152600401612139906135ed565b60405180910390fd5b428211612184576040517f08c379a000000000000000000000000000000000000000000000000000000000815260040161217b90613655565b60405180910390fd5b600190509695505050505050565b5f5f60048111156121a6576121a56124e8565b5b8560048111156121b9576121b86124e8565b5b146121f9576040517f08c379a00000000000000000000000000000000000000000000000000000000081526004016121f0906136bd565b60405180910390fd5b8373ffffffffffffffffffffffffffffffffffffffff168273ffffffffffffffffffffffffffffffffffffffff1603612267576040517f08c379a000000000000000000000000000000000000000000000000000000000815260040161225e90613725565b60405180910390fd5b5f73ffffffffffffffffffffffffffffffffffffffff168373ffffffffffffffffffffffffffffffffffffffff16146122d5576040517f08c379a00000000000000000000000000000000000000000000000000000000081526004016122cc9061378d565b60405180910390fd5b60019050949350505050565b6040518061012001604052805f81526020015f73ffffffffffffffffffffffffffffffffffffffff1681526020015f73ffffffffffffffffffffffffffffffffffffffff16815260200160608152602001606081526020015f81526020015f6004811115612352576123516124e8565b5b81526020015f81526020015f81525090565b5f819050919050565b7f4e487b71000000000000000000000000000000000000000000000000000000005f52601160045260245ffd5b5f6123a482612364565b91506123af83612364565b92508282019050808211156123c7576123c661236d565b5b92915050565b5f5ffd5b5f5ffd5b6123de81612364565b81146123e8575f5ffd5b50565b5f813590506123f9816123d5565b92915050565b5f60208284031215612414576124136123cd565b5b5f612421848285016123eb565b91505092915050565b61243381612364565b82525050565b5f73ffffffffffffffffffffffffffffffffffffffff82169050919050565b5f61246282612439565b9050919050565b61247281612458565b82525050565b5f81519050919050565b5f82825260208201905092915050565b8281835e5f83830152505050565b5f601f19601f8301169050919050565b5f6124ba82612478565b6124c48185612482565b93506124d4818560208601612492565b6124dd816124a0565b840191505092915050565b7f4e487b71000000000000000000000000000000000000000000000000000000005f52602160045260245ffd5b60058110612526576125256124e8565b5b50565b5f81905061253682612515565b919050565b5f61254582612529565b9050919050565b6125558161253b565b82525050565b5f61012083015f8301516125715f86018261242a565b5060208301516125846020860182612469565b5060408301516125976040860182612469565b50606083015184820360608601526125af82826124b0565b915050608083015184820360808601526125c982826124b0565b91505060a08301516125de60a086018261242a565b5060c08301516125f160c086018261254c565b5060e083015161260460e086018261242a565b5061010083015161261961010086018261242a565b508091505092915050565b5f6020820190508181035f83015261263c818461255b565b905092915050565b61264d81612458565b8114612657575f5ffd5b50565b5f8135905061266881612644565b92915050565b5f60208284031215612683576126826123cd565b5b5f6126908482850161265a565b91505092915050565b5f81519050919050565b5f82825260208201905092915050565b5f819050602082019050919050565b5f6126cd838361242a565b60208301905092915050565b5f602082019050919050565b5f6126ef82612699565b6126f981856126a3565b9350612704836126b3565b805f5b8381101561273457815161271b88826126c2565b9750612726836126d9565b925050600181019050612707565b5085935050505092915050565b5f6020820190508181035f83015261275981846126e5565b905092915050565b61276a81612364565b82525050565b5f6020820190506127835f830184612761565b92915050565b5f5ffd5b5f5ffd5b5f5ffd5b5f5f83601f8401126127aa576127a9612789565b5b8235905067ffffffffffffffff8111156127c7576127c661278d565b5b6020830191508360018202830111156127e3576127e2612791565b5b9250929050565b5f5f5f5f5f60608688031215612803576128026123cd565b5b5f86013567ffffffffffffffff8111156128205761281f6123d1565b5b61282c88828901612795565b9550955050602086013567ffffffffffffffff81111561284f5761284e6123d1565b5b61285b88828901612795565b9350935050604061286e888289016123eb565b9150509295509295909350565b61288481612458565b82525050565b5f60208201905061289d5f83018461287b565b92915050565b5f81519050919050565b5f82825260208201905092915050565b5f819050602082019050919050565b5f61012083015f8301516128e25f86018261242a565b5060208301516128f56020860182612469565b5060408301516129086040860182612469565b506060830151848203606086015261292082826124b0565b9150506080830151848203608086015261293a82826124b0565b91505060a083015161294f60a086018261242a565b5060c083015161296260c086018261254c565b5060e083015161297560e086018261242a565b5061010083015161298a61010086018261242a565b508091505092915050565b5f6129a083836128cc565b905092915050565b5f602082019050919050565b5f6129be826128a3565b6129c881856128ad565b9350836020820285016129da856128bd565b805f5b85811015612a1557848403895281516129f68582612995565b9450612a01836129a8565b925060208a019950506001810190506129dd565b50829750879550505050505092915050565b5f6020820190508181035f830152612a3f81846129b4565b905092915050565b5f82825260208201905092915050565b7f5461736b20646f6573206e6f74206578697374000000000000000000000000005f82015250565b5f612a8b601383612a47565b9150612a9682612a57565b602082019050919050565b5f6020820190508181035f830152612ab881612a7f565b9050919050565b7f4e487b71000000000000000000000000000000000000000000000000000000005f52602260045260245ffd5b5f6002820490506001821680612b0357607f821691505b602082108103612b1657612b15612abf565b5b50919050565b7f4e6f2062616c616e636520746f207769746864726177000000000000000000005f82015250565b5f612b50601683612a47565b9150612b5b82612b1c565b602082019050919050565b5f6020820190508181035f830152612b7d81612b44565b9050919050565b5f81905092915050565b50565b5f612b9c5f83612b84565b9150612ba782612b8e565b5f82019050919050565b5f612bbb82612b91565b9150819050919050565b7f5472616e73666572206661696c656400000000000000000000000000000000005f82015250565b5f612bf9600f83612a47565b9150612c0482612bc5565b602082019050919050565b5f6020820190508181035f830152612c2681612bed565b9050919050565b7f4f6e6c79207461736b2063726561746f722063616e2063616c6c2074686973005f82015250565b5f612c61601f83612a47565b9150612c6c82612c2d565b602082019050919050565b5f6020820190508181035f830152612c8e81612c55565b9050919050565b7f576f726b20686173206e6f74206265656e207375626d697474656400000000005f82015250565b5f612cc9601b83612a47565b9150612cd482612c95565b602082019050919050565b5f6020820190508181035f830152612cf681612cbd565b9050919050565b7f4e6f20776f726b65722061737369676e656400000000000000000000000000005f82015250565b5f612d31601283612a47565b9150612d3c82612cfd565b602082019050919050565b5f6020820190508181035f830152612d5e81612d25565b9050919050565b5f612d6f82612364565b91507fffffffffffffffffffffffffffffffffffffffffffffffffffffffffffffffff8203612da157612da061236d565b5b600182019050919050565b7f4e487b71000000000000000000000000000000000000000000000000000000005f52604160045260245ffd5b5f819050815f5260205f209050919050565b5f6020601f8301049050919050565b5f82821b905092915050565b5f60088302612e357fffffffffffffffffffffffffffffffffffffffffffffffffffffffffffffffff82612dfa565b612e3f8683612dfa565b95508019841693508086168417925050509392505050565b5f819050919050565b5f612e7a612e75612e7084612364565b612e57565b612364565b9050919050565b5f819050919050565b612e9383612e60565b612ea7612e9f82612e81565b848454612e06565b825550505050565b5f5f905090565b612ebe612eaf565b612ec9818484612e8a565b505050565b5b81811015612eec57612ee15f82612eb6565b600181019050612ecf565b5050565b601f821115612f3157612f0281612dd9565b612f0b84612deb565b81016020851015612f1a578190505b612f2e612f2685612deb565b830182612ece565b50505b505050565b5f82821c905092915050565b5f612f515f1984600802612f36565b1980831691505092915050565b5f612f698383612f42565b9150826002028217905092915050565b612f8282612478565b67ffffffffffffffff811115612f9b57612f9a612dac565b5b612fa58254612aec565b612fb0828285612ef0565b5f60209050601f831160018114612fe1575f8415612fcf578287015190505b612fd98582612f5e565b865550613040565b601f198416612fef86612dd9565b5f5b8281101561301657848901518255600182019150602085019450602081019050612ff1565b86831015613033578489015161302f601f891682612f42565b8355505b6001600288020188555050505b505050505050565b5f60408201905061305b5f830185612761565b6130686020830184612761565b9392505050565b7f5461736b20646561646c696e65206861732070617373656400000000000000005f82015250565b5f6130a3601883612a47565b91506130ae8261306f565b602082019050919050565b5f6020820190508181035f8301526130d081613097565b9050919050565b7f5461736b2063616e6e6f742062652063616e63656c6c656400000000000000005f82015250565b5f61310b601883612a47565b9150613116826130d7565b602082019050919050565b5f6020820190508181035f830152613138816130ff565b9050919050565b7f4e487b71000000000000000000000000000000000000000000000000000000005f52603260045260245ffd5b7f4f6e6c792061737369676e656420776f726b65722063616e2063616c6c2074685f8201527f6973000000000000000000000000000000000000000000000000000000000000602082015250565b5f6131c6602283612a47565b91506131d18261316c565b604082019050919050565b5f6020820190508181035f8301526131f3816131ba565b9050919050565b7f5461736b206973206e6f7420696e2070726f67726573730000000000000000005f82015250565b5f61322e601783612a47565b9150613239826131fa565b602082019050919050565b5f6020820190508181035f83015261325b81613222565b9050919050565b7f4f6e6c79206f776e65722063616e2063616c6c207468697300000000000000005f82015250565b5f613296601883612a47565b91506132a182613262565b602082019050919050565b5f6020820190508181035f8301526132c38161328a565b9050919050565b7f4e6f206665657320746f207769746864726177000000000000000000000000005f82015250565b5f6132fe601383612a47565b9150613309826132ca565b602082019050919050565b5f6020820190508181035f83015261332b816132f2565b9050919050565b5f61333c82612364565b915061334783612364565b925082820261335581612364565b9150828204841483151761336c5761336b61236d565b5b5092915050565b7f4e487b71000000000000000000000000000000000000000000000000000000005f52601260045260245ffd5b5f6133aa82612364565b91506133b583612364565b9250826133c5576133c4613373565b5b828204905092915050565b5f6133da82612364565b91506133e583612364565b92508282039050818111156133fd576133fc61236d565b5b92915050565b7f5469746c652063616e6e6f7420626520656d70747900000000000000000000005f82015250565b5f613437601583612a47565b915061344282613403565b602082019050919050565b5f6020820190508181035f8301526134648161342b565b9050919050565b7f5469746c6520746f6f206c6f6e670000000000000000000000000000000000005f82015250565b5f61349f600e83612a47565b91506134aa8261346b565b602082019050919050565b5f6020820190508181035f8301526134cc81613493565b9050919050565b7f4465736372697074696f6e2063616e6e6f7420626520656d70747900000000005f82015250565b5f613507601b83612a47565b9150613512826134d3565b602082019050919050565b5f6020820190508181035f830152613534816134fb565b9050919050565b7f4465736372697074696f6e20746f6f206c6f6e670000000000000000000000005f82015250565b5f61356f601483612a47565b915061357a8261353b565b602082019050919050565b5f6020820190508181035f83015261359c81613563565b9050919050565b7f526577617264206d7573742062652067726561746572207468616e20300000005f82015250565b5f6135d7601d83612a47565b91506135e2826135a3565b602082019050919050565b5f6020820190508181035f830152613604816135cb565b9050919050565b7f446561646c696e65206d75737420626520696e207468652066757475726500005f82015250565b5f61363f601e83612a47565b915061364a8261360b565b602082019050919050565b5f6020820190508181035f83015261366c81613633565b9050919050565b7f5461736b206973206e6f74206f70656e000000000000000000000000000000005f82015250565b5f6136a7601083612a47565b91506136b282613673565b602082019050919050565b5f6020820190508181035f8301526136d48161369b565b9050919050565b7f43726561746f722063616e6e6f742074616b65206f776e207461736b000000005f82015250565b5f61370f601c83612a47565b915061371a826136db565b602082019050919050565b5f6020820190508181035f83015261373c81613703565b9050919050565b7f5461736b20616c72656164792074616b656e00000000000000000000000000005f82015250565b5f613777601283612a47565b915061378282613743565b602082019050919050565b5f6020820190508181035f8301526137a48161376b565b905091905056fea2646970667358221220bb003db1a68005594f613d9ddfcd64dbcfd56a26c9830b32287ce2af10eae37f64736f6c634300081c0033",
  "linkReferences": {},
  "deployedLinkReferences": {},
  "immutableReferences": {},
  "inputSourceName": "project/contracts/TaskMarketplace.sol",
  "buildInfoId": "solc-0_8_28-1729a4d6c53dba6839db48943bff217dc55bf47f"
}