{
  "_format": "hh3-artifact-1",
  "contractName": "TaskMarketplace",
  "sourceName": "contracts/TaskMarketplace.sol",
  "abi": [
    {
      "inputs": [],
      "stateMutability": "nonpayable",
      "type": "constructor"
    },
    {
      "anonymous": false,
      "inputs": [
        {
          "indexed": true,
          "internalType": "uint256",
          "name": "taskId",
          "type": "uint256"
        },
        {
          "indexed": true,
          "internalType": "address",
          "name": "author",
          "type": "address"
        },
        {
          "indexed": false,
          "internalType": "string",
          "name": "cid",
          "type": "string"
        }
      ],
      "name": "CommentAdded",
      "type": "event"
    },
    {
      "anonymous": false,
      "inputs": [
        {
          "indexed": true,
          "internalType": "uint256",
          "name": "taskId",
          "type": "uint256"
        },
        {
          "indexed": true,
          "internalType": "address",
          "name": "from",
          "type": "address"
        },
        {
          "indexed": true,
          "internalType": "address",
          "name": "to",
          "type": "address"
        },
        {
          "indexed": false,
          "internalType": "uint8",
          "name": "stars",
          "type": "uint8"
        }
      ],
      "name": "Rated",
      "type": "event"
    },
    {
      "anonymous": false,
      "inputs": [
        {
          "indexed": true,
          "internalType": "uint256",
          "name": "taskId",
          "type": "uint256"
        },
        {
          "indexed": true,
          "internalType": "address",
          "name": "applicant",
          "type": "address"
        }
      ],
      "name": "TaskApplied",
      "type": "event"
    },
    {
      "anonymous": false,
      "inputs": [
        {
          "indexed": true,
          "internalType": "uint256",
          "name": "taskId",
          "type": "uint256"
        }
      ],
      "name": "TaskCancelled",
      "type": "event"
    },
    {
      "anonymous": false,
      "inputs": [
        {
          "indexed": true,
          "internalType": "uint256",
          "name": "taskId",
          "type": "uint256"
        },
        {
          "indexed": true,
          "internalType": "address",
          "name": "author",
          "type": "address"
        },
        {
          "indexed": false,
          "internalType": "string",
          "name": "message",
          "type": "string"
        },
        {
          "indexed": false,
          "internalType": "uint256",
          "name": "timestamp",
          "type": "uint256"
        }
      ],
      "name": "TaskComment",
      "type": "event"
    },
    {
      "anonymous": false,
      "inputs": [
        {
          "indexed": true,
          "internalType": "uint256",
          "name": "taskId",
          "type": "uint256"
        },
        {
          "indexed": true,
          "internalType": "address",
          "name": "creator",
          "type": "address"
        },
        {
          "indexed": false,
          "internalType": "uint256",
          "name": "reward",
          "type": "uint256"
        },
        {
          "indexed": false,
          "internalType": "uint256",
          "name": "applyDeadline",
          "type": "uint256"
        },
        {
          "indexed": false,
          "internalType": "uint256",
          "name": "deliveryDeadline",
          "type": "uint256"
        },
        {
          "indexed": false,
          "internalType": "uint8",
          "name": "category",
          "type": "uint8"
        },
        {
          "indexed": false,
          "internalType": "bytes32",
          "name": "tagsHash",
          "type": "bytes32"
        },
        {
          "indexed": false,
          "internalType": "string",
          "name": "metadataCID",
          "type": "string"
        }
      ],
      "name": "TaskCreated",
      "type": "event"
    },
    {
      "anonymous": false,
      "inputs": [
        {
          "indexed": true,
          "internalType": "uint256",
          "name": "taskId",
          "type": "uint256"
        }
      ],
      "name": "TaskExpired",
      "type": "event"
    },
    {
      "anonymous": false,
      "inputs": [
        {
          "indexed": true,
          "internalType": "uint256",
          "name": "taskId",
          "type": "uint256"
        },
        {
          "indexed": true,
          "internalType": "address",
          "name": "employer",
          "type": "address"
        },
        {
          "indexed": true,
          "internalType": "address",
          "name": "worker",
          "type": "address"
        },
        {
          "indexed": false,
          "internalType": "uint256",
          "name": "workerPayment",
          "type": "uint256"
        }
      ],
      "name": "WorkApproved",
      "type": "event"
    },
    {
      "anonymous": false,
      "inputs": [
        {
          "indexed": true,
          "internalType": "uint256",
          "name": "taskId",
          "type": "uint256"
        },
        {
          "indexed": true,
          "internalType": "address",
          "name": "trigger",
          "type": "address"
        },
        {
          "indexed": true,
          "internalType": "address",
          "name": "worker",
          "type": "address"
        },
        {
          "indexed": false,
          "internalType": "uint256",
          "name": "workerPayment",
          "type": "uint256"
        }
      ],
      "name": "WorkAutoApproved",
      "type": "event"
    },
    {
      "anonymous": false,
      "inputs": [
        {
          "indexed": true,
          "internalType": "uint256",
          "name": "taskId",
          "type": "uint256"
        },
        {
          "indexed": true,
          "internalType": "address",
          "name": "worker",
          "type": "address"
        },
        {
          "indexed": false,
          "internalType": "string",
          "name": "submissionCID",
          "type": "string"
        },
        {
          "indexed": false,
          "internalType": "uint256",
          "name": "reviewDeadline",
          "type": "uint256"
        }
      ],
      "name": "WorkSubmitted",
      "type": "event"
    },
    {
      "anonymous": false,
      "inputs": [
        {
          "indexed": true,
          "internalType": "uint256",
          "name": "taskId",
          "type": "uint256"
        },
        {
          "indexed": true,
          "internalType": "address",
          "name": "employer",
          "type": "address"
        },
        {
          "indexed": true,
          "internalType": "address",
          "name": "worker",
          "type": "address"
        }
      ],
      "name": "WorkerAccepted",
      "type": "event"
    },
    {
      "stateMutability": "payable",
      "type": "fallback"
    },
    {
      "inputs": [
        {
          "internalType": "uint256",
          "name": "taskId",
          "type": "uint256"
        },
        {
          "internalType": "address",
          "name": "worker",
          "type": "address"
        }
      ],
      "name": "acceptWorker",
      "outputs": [],
      "stateMutability": "nonpayable",
      "type": "function"
    },
    {
      "inputs": [
        {
          "internalType": "uint256",
          "name": "taskId",
          "type": "uint256"
        },
        {
          "internalType": "string",
          "name": "message",
          "type": "string"
        }
      ],
      "name": "addComment",
      "outputs": [],
      "stateMutability": "nonpayable",
      "type": "function"
    },
    {
      "inputs": [
        {
          "internalType": "uint256",
          "name": "taskId",
          "type": "uint256"
        }
      ],
      "name": "applyToTask",
      "outputs": [],
      "stateMutability": "nonpayable",
      "type": "function"
    },
    {
      "inputs": [
        {
          "internalType": "uint256",
          "name": "taskId",
          "type": "uint256"
        }
      ],
      "name": "approveWork",
      "outputs": [],
      "stateMutability": "nonpayable",
      "type": "function"
    },
    {
      "inputs": [
        {
          "internalType": "uint256",
          "name": "taskId",
          "type": "uint256"
        }
      ],
      "name": "autoApprove",
      "outputs": [],
      "stateMutability": "nonpayable",
      "type": "function"
    },
    {
      "inputs": [
        {
          "internalType": "uint256",
          "name": "taskId",
          "type": "uint256"
        }
      ],
      "name": "cancelTask",
      "outputs": [],
      "stateMutability": "nonpayable",
      "type": "function"
    },
    {
      "inputs": [
        {
          "internalType": "string",
          "name": "title",
          "type": "string"
        },
        {
          "internalType": "string",
          "name": "metadataCID",
          "type": "string"
        },
        {
          "internalType": "uint8",
          "name": "category",
          "type": "uint8"
        },
        {
          "internalType": "bytes32",
          "name": "tagsHash",
          "type": "bytes32"
        },
        {
          "internalType": "uint256",
          "name": "applyDeadline",
          "type": "uint256"
        },
        {
          "internalType": "uint256",
          "name": "deliveryDeadline",
          "type": "uint256"
        }
      ],
      "name": "createTask",
      "outputs": [
        {
          "internalType": "uint256",
          "name": "",
          "type": "uint256"
        }
      ],
      "stateMutability": "payable",
      "type": "function"
    },
    {
      "inputs": [
        {
          "internalType": "uint256",
          "name": "taskId",
          "type": "uint256"
        }
      ],
      "name": "expireTask",
      "outputs": [],
      "stateMutability": "nonpayable",
      "type": "function"
    },
    {
      "inputs": [
        {
          "internalType": "uint256",
          "name": "taskId",
          "type": "uint256"
        }
      ],
      "name": "getApplicants",
      "outputs": [
        {
          "internalType": "address[]",
          "name": "",
          "type": "address[]"
        }
      ],
      "stateMutability": "view",
      "type": "function"
    },
    {
      "inputs": [
        {
          "internalType": "address",
          "name": "user",
          "type": "address"
        }
      ],
      "name": "getBalance",
      "outputs": [
        {
          "internalType": "uint256",
          "name": "",
          "type": "uint256"
        }
      ],
      "stateMutability": "view",
      "type": "function"
    },
    {
      "inputs": [
        {
          "internalType": "address",
          "name": "user",
          "type": "address"
        }
      ],
      "name": "getRating",
      "outputs": [
        {
          "internalType": "uint256",
          "name": "avgStarsTimes100",
          "type": "uint256"
        },
        {
          "internalType": "uint32",
          "name": "count",
          "type": "uint32"
        }
      ],
      "stateMutability": "view",
      "type": "function"
    },
    {
      "inputs": [
        {
          "internalType": "uint256",
          "name": "taskId",
          "type": "uint256"
        }
      ],
      "name": "getTask",
      "outputs": [
        {
          "components": [
            {
              "internalType": "uint256",
              "name": "id",
              "type": "uint256"
            },
            {
              "internalType": "address",
              "name": "creator",
              "type": "address"
            },
            {
              "internalType": "address",
              "name": "worker",
              "type": "address"
            },
            {
              "internalType": "string",
              "name": "title",
              "type": "string"
            },
            {
              "internalType": "string",
              "name": "metadataCID",
              "type": "string"
            },
            {
              "internalType": "string",
              "name": "submissionCID",
              "type": "string"
            },
            {
              "internalType": "uint256",
              "name": "reward",
              "type": "uint256"
            },
            {
              "internalType": "enum ITaskMarketplace.TaskStatus",
              "name": "status",
              "type": "uint8"
            },
            {
              "internalType": "uint256",
              "name": "createdAt",
              "type": "uint256"
            },
            {
              "internalType": "uint256",
              "name": "applyDeadline",
              "type": "uint256"
            },
            {
              "internalType": "uint256",
              "name": "deliveryDeadline",
              "type": "uint256"
            },
            {
              "internalType": "uint256",
              "name": "reviewDeadline",
              "type": "uint256"
            },
            {
              "internalType": "uint256",
              "name": "acceptedAt",
              "type": "uint256"
            },
            {
              "internalType": "uint256",
              "name": "completedAt",
              "type": "uint256"
            },
            {
              "internalType": "enum ITaskMarketplace.Category",
              "name": "category",
              "type": "uint8"
            },
            {
              "internalType": "bytes32",
              "name": "tagsHash",
              "type": "bytes32"
            }
          ],
          "internalType": "struct ITaskMarketplace.Task",
          "name": "",
          "type": "tuple"
        }
      ],
      "stateMutability": "view",
      "type": "function"
    },
    {
      "inputs": [
        {
          "internalType": "address",
          "name": "creator",
          "type": "address"
        }
      ],
      "name": "getTasksByCreator",
      "outputs": [
        {
          "internalType": "uint256[]",
          "name": "",
          "type": "uint256[]"
        }
      ],
      "stateMutability": "view",
      "type": "function"
    },
    {
      "inputs": [
        {
          "internalType": "address",
          "name": "worker",
          "type": "address"
        }
      ],
      "name": "getTasksByWorker",
      "outputs": [
        {
          "internalType": "uint256[]",
          "name": "",
          "type": "uint256[]"
        }
      ],
      "stateMutability": "view",
      "type": "function"
    },
    {
      "inputs": [],
      "name": "getTotalTasks",
      "outputs": [
        {
          "internalType": "uint256",
          "name": "",
          "type": "uint256"
        }
      ],
      "stateMutability": "view",
      "type": "function"
    },
    {
      "inputs": [],
      "name": "owner",
      "outputs": [
        {
          "internalType": "address",
          "name": "",
          "type": "address"
        }
      ],
      "stateMutability": "view",
      "type": "function"
    },
    {
      "inputs": [],
      "name": "platformFeeBalance",
      "outputs": [
        {
          "internalType": "uint256",
          "name": "",
          "type": "uint256"
        }
      ],
      "stateMutability": "view",
      "type": "function"
    },
    {
      "inputs": [
        {
          "internalType": "uint256",
          "name": "taskId",
          "type": "uint256"
        },
        {
          "internalType": "uint8",
          "name": "stars",
          "type": "uint8"
        }
      ],
      "name": "rateCreator",
      "outputs": [],
      "stateMutability": "nonpayable",
      "type": "function"
    },
    {
      "inputs": [
        {
          "internalType": "uint256",
          "name": "taskId",
          "type": "uint256"
        },
        {
          "internalType": "uint8",
          "name": "stars",
          "type": "uint8"
        }
      ],
      "name": "rateWorker",
      "outputs": [],
      "stateMutability": "nonpayable",
      "type": "function"
    },
    {
      "inputs": [
        {
          "internalType": "uint256",
          "name": "taskId",
          "type": "uint256"
        },
        {
          "internalType": "string",
          "name": "submissionCID",
          "type": "string"
        }
      ],
      "name": "submitWork",
      "outputs": [],
      "stateMutability": "nonpayable",
      "type": "function"
    },
    {
      "inputs": [],
      "name": "withdraw",
      "outputs": [],
      "stateMutability": "nonpayable",
      "type": "function"
    },
    {
      "inputs": [],
      "name": "withdrawPlatformFees",
      "outputs": [],
      "stateMutability": "nonpayable",
      "type": "function"
    },
    {
      "stateMutability": "payable",
      "type": "receive"
    }
  ],
  "bytecode": "0x6080604052348015600e575f5ffd5b503360095f6101000a81548173ffffffffffffffffffffffffffffffffffffffff021916908373ffffffffffffffffffffffffffffffffffffffff16021790555061511d8061005c5f395ff3fe608060405260043610610138575f3560e01c806380fc9c0e116100aa578063b45d94121161006e578063b45d94121461044e578063bddeab2a14610476578063d0b7830b1461049e578063da8accf9146104b4578063e3c98ba0146104dc578063f8b2cb4f1461050657610156565b806380fc9c0e146103675780638da5cb5b146103a45780639482c8a8146103ce578063aa7e5683146103fe578063b2a0d47d1461042657610156565b806362ecc47a116100fc57806362ecc47a1461024f57806363dd5c1f1461027757806367a28c1e1461029f5780636cf5d86e146102c757806370337a78146103035780637eec20a81461033f57610156565b80631d65e77e1461016f57806331a40131146101ab5780633c93b905146101e75780633ccfd60b146102115780633d01e0fa1461022757610156565b366101565734600b5f82825461014e9190613465565b925050819055005b34600b5f8282546101679190613465565b925050819055005b34801561017a575f5ffd5b50610195600480360381019061019091906134ca565b610542565b6040516101a291906137e7565b60405180910390f35b3480156101b6575f5ffd5b506101d160048036038101906101cc9190613831565b6108e6565b6040516101de9190613904565b60405180910390f35b3480156101f2575f5ffd5b506101fb610979565b6040516102089190613933565b60405180910390f35b34801561021c575f5ffd5b50610225610982565b005b348015610232575f5ffd5b5061024d600480360381019061024891906134ca565b610af3565b005b34801561025a575f5ffd5b50610275600480360381019061027091906134ca565b610d10565b005b348015610282575f5ffd5b5061029d6004803603810190610298919061394c565b610fd9565b005b3480156102aa575f5ffd5b506102c560048036038101906102c091906134ca565b6113db565b005b3480156102d2575f5ffd5b506102ed60048036038101906102e891906134ca565b611742565b6040516102fa9190613a32565b60405180910390f35b34801561030e575f5ffd5b5061032960048036038101906103249190613831565b611830565b6040516103369190613904565b60405180910390f35b34801561034a575f5ffd5b50610365600480360381019061036091906134ca565b6118c3565b005b348015610372575f5ffd5b5061038d60048036038101906103889190613831565b611b56565b60405161039b929190613a70565b60405180910390f35b3480156103af575f5ffd5b506103b8611c49565b6040516103c59190613aa6565b60405180910390f35b6103e860048036038101906103e39190613b80565b611c6e565b6040516103f59190613933565b60405180910390f35b348015610409575f5ffd5b50610424600480360381019061041f9190613c4a565b6120d3565b005b348015610431575f5ffd5b5061044c60048036038101906104479190613ca7565b612308565b005b348015610459575f5ffd5b50610474600480360381019061046f91906134ca565b6126d9565b005b348015610481575f5ffd5b5061049c60048036038101906104979190613ca7565b612850565b005b3480156104a9575f5ffd5b506104b2612c21565b005b3480156104bf575f5ffd5b506104da60048036038101906104d59190613c4a565b612dcc565b005b3480156104e7575f5ffd5b506104f061308f565b6040516104fd9190613933565b60405180910390f35b348015610511575f5ffd5b5061052c60048036038101906105279190613831565b613095565b6040516105399190613933565b60405180910390f35b61054a61336f565b815f8111801561055c5750600a548111155b61059b576040517f08c379a000000000000000000000000000000000000000000000000000000000815260040161059290613d3f565b60405180910390fd5b5f5f8481526020019081526020015f20604051806102000160405290815f8201548152602001600182015f9054906101000a900473ffffffffffffffffffffffffffffffffffffffff1673ffffffffffffffffffffffffffffffffffffffff1673ffffffffffffffffffffffffffffffffffffffff168152602001600282015f9054906101000a900473ffffffffffffffffffffffffffffffffffffffff1673ffffffffffffffffffffffffffffffffffffffff1673ffffffffffffffffffffffffffffffffffffffff16815260200160038201805461067a90613d8a565b80601f01602080910402602001604051908101604052809291908181526020018280546106a690613d8a565b80156106f15780601f106106c8576101008083540402835291602001916106f1565b820191905f5260205f20905b8154815290600101906020018083116106d457829003601f168201915b5050505050815260200160048201805461070a90613d8a565b80601f016020809104026020016040519081016040528092919081815260200182805461073690613d8a565b80156107815780601f1061075857610100808354040283529160200191610781565b820191905f5260205f20905b81548152906001019060200180831161076457829003601f168201915b5050505050815260200160058201805461079a90613d8a565b80601f01602080910402602001604051908101604052809291908181526020018280546107c690613d8a565b80156108115780601f106107e857610100808354040283529160200191610811565b820191905f5260205f20905b8154815290600101906020018083116107f457829003601f168201915b5050505050815260200160068201548152602001600782015f9054906101000a900460ff166005811115610848576108476135b3565b5b600581111561085a576108596135b3565b5b81526020016008820154815260200160098201548152602001600a8201548152602001600b8201548152602001600c8201548152602001600d8201548152602001600e82015f9054906101000a900460ff1660048111156108be576108bd6135b3565b5b60048111156108d0576108cf6135b3565b5b8152602001600f82015481525050915050919050565b606060015f8373ffffffffffffffffffffffffffffffffffffffff1673ffffffffffffffffffffffffffffffffffffffff1681526020019081526020015f2080548060200260200160405190810160405280929190818152602001828054801561096d57602002820191905f5260205f20905b815481526020019060010190808311610959575b50505050509050919050565b5f600a54905090565b5f60085f3373ffffffffffffffffffffffffffffffffffffffff1673ffffffffffffffffffffffffffffffffffffffff1681526020019081526020015f205490505f8111610a05576040517f08c379a00000000000000000000000000000000000000000000000000000000081526004016109fc90613e04565b60405180910390fd5b5f60085f3373ffffffffffffffffffffffffffffffffffffffff1673ffffffffffffffffffffffffffffffffffffffff1681526020019081526020015f20819055505f3373ffffffffffffffffffffffffffffffffffffffff1682604051610a6c90613e4f565b5f6040518083038185875af1925050503d805f8114610aa6576040519150601f19603f3d011682016040523d82523d5f602084013e610aab565b606091505b5050905080610aef576040517f08c379a0000000000000000000000000000000000000000000000000000000008152600401610ae690613ead565b60405180910390fd5b5050565b805f81118015610b055750600a548111155b610b44576040517f08c379a0000000000000000000000000000000000000000000000000000000008152600401610b3b90613d3f565b60405180910390fd5b813373ffffffffffffffffffffffffffffffffffffffff165f5f8381526020019081526020015f206001015f9054906101000a900473ffffffffffffffffffffffffffffffffffffffff1673ffffffffffffffffffffffffffffffffffffffff1614610be5576040517f08c379a0000000000000000000000000000000000000000000000000000000008152600401610bdc90613f15565b60405180910390fd5b5f5f5f8581526020019081526020015f20905060026005811115610c0c57610c0b6135b3565b5b816007015f9054906101000a900460ff166005811115610c2f57610c2e6135b3565b5b14610c6f576040517f08c379a0000000000000000000000000000000000000000000000000000000008152600401610c6690613f7d565b60405180910390fd5b5f73ffffffffffffffffffffffffffffffffffffffff16816002015f9054906101000a900473ffffffffffffffffffffffffffffffffffffffff1673ffffffffffffffffffffffffffffffffffffffff1603610d00576040517f08c379a0000000000000000000000000000000000000000000000000000000008152600401610cf790613fe5565b60405180910390fd5b610d0a845f6130db565b50505050565b805f81118015610d225750600a548111155b610d61576040517f08c379a0000000000000000000000000000000000000000000000000000000008152600401610d5890613d3f565b60405180910390fd5b5f5f5f8481526020019081526020015f2090505f6005811115610d8757610d866135b3565b5b816007015f9054906101000a900460ff166005811115610daa57610da96135b3565b5b1480610dea575060016005811115610dc557610dc46135b3565b5b816007015f9054906101000a900460ff166005811115610de857610de76135b3565b5b145b610e29576040517f08c379a0000000000000000000000000000000000000000000000000000000008152600401610e209061404d565b60405180910390fd5b5f5f6005811115610e3d57610e3c6135b3565b5b826007015f9054906101000a900460ff166005811115610e6057610e5f6135b3565b5b148015610e705750816009015442115b80610ebe575060016005811115610e8a57610e896135b3565b5b826007015f9054906101000a900460ff166005811115610ead57610eac6135b3565b5b148015610ebd575081600a015442115b5b905080610f00576040517f08c379a0000000000000000000000000000000000000000000000000000000008152600401610ef7906140b5565b60405180910390fd5b6005826007015f6101000a81548160ff02191690836005811115610f2757610f266135b3565b5b0217905550816006015460085f846001015f9054906101000a900473ffffffffffffffffffffffffffffffffffffffff1673ffffffffffffffffffffffffffffffffffffffff1673ffffffffffffffffffffffffffffffffffffffff1681526020019081526020015f205f828254610f9f9190613465565b92505081905550837f7c2ecd5e2b7188ac57f3a370681639cb447c9cbfbbbace0c070adea6c73eaa5460405160405180910390a250505050565b815f81118015610feb5750600a548111155b61102a576040517f08c379a000000000000000000000000000000000000000000000000000000000815260040161102190613d3f565b60405180910390fd5b823373ffffffffffffffffffffffffffffffffffffffff165f5f8381526020019081526020015f206001015f9054906101000a900473ffffffffffffffffffffffffffffffffffffffff1673ffffffffffffffffffffffffffffffffffffffff16146110cb576040517f08c379a00000000000000000000000000000000000000000000000000000000081526004016110c290613f15565b60405180910390fd5b5f5f5f8681526020019081526020015f2090505f60058111156110f1576110f06135b3565b5b816007015f9054906101000a900460ff166005811115611114576111136135b3565b5b14611154576040517f08c379a000000000000000000000000000000000000000000000000000000000815260040161114b9061411d565b60405180910390fd5b806009015442111561119b576040517f08c379a000000000000000000000000000000000000000000000000000000000815260040161119290614185565b60405180910390fd5b5f73ffffffffffffffffffffffffffffffffffffffff168473ffffffffffffffffffffffffffffffffffffffff1603611209576040517f08c379a0000000000000000000000000000000000000000000000000000000008152600401611200906141ed565b60405180910390fd5b60045f8681526020019081526020015f205f8573ffffffffffffffffffffffffffffffffffffffff1673ffffffffffffffffffffffffffffffffffffffff1681526020019081526020015f205f9054906101000a900460ff166112a1576040517f08c379a000000000000000000000000000000000000000000000000000000000815260040161129890614255565b60405180910390fd5b83816002015f6101000a81548173ffffffffffffffffffffffffffffffffffffffff021916908373ffffffffffffffffffffffffffffffffffffffff1602179055506001816007015f6101000a81548160ff0219169083600581111561130a576113096135b3565b5b02179055504281600c018190555060025f8573ffffffffffffffffffffffffffffffffffffffff1673ffffffffffffffffffffffffffffffffffffffff1681526020019081526020015f2085908060018154018082558091505060019003905f5260205f20015f90919091909150558373ffffffffffffffffffffffffffffffffffffffff163373ffffffffffffffffffffffffffffffffffffffff16867f27f3c1616439fb79a9e57d4200ce19a9167a57dcf6dacc53d946ea90627b3f3660405160405180910390a45050505050565b805f811180156113ed5750600a548111155b61142c576040517f08c379a000000000000000000000000000000000000000000000000000000000815260040161142390613d3f565b60405180910390fd5b5f5f5f8481526020019081526020015f2090505f6005811115611452576114516135b3565b5b816007015f9054906101000a900460ff166005811115611475576114746135b3565b5b146114b5576040517f08c379a00000000000000000000000000000000000000000000000000000000081526004016114ac9061411d565b60405180910390fd5b80600901544211156114fc576040517f08c379a00000000000000000000000000000000000000000000000000000000081526004016114f390614185565b60405180910390fd5b806001015f9054906101000a900473ffffffffffffffffffffffffffffffffffffffff1673ffffffffffffffffffffffffffffffffffffffff163373ffffffffffffffffffffffffffffffffffffffff160361158d576040517f08c379a0000000000000000000000000000000000000000000000000000000008152600401611584906142bd565b60405180910390fd5b60045f8481526020019081526020015f205f3373ffffffffffffffffffffffffffffffffffffffff1673ffffffffffffffffffffffffffffffffffffffff1681526020019081526020015f205f9054906101000a900460ff1615611626576040517f08c379a000000000000000000000000000000000000000000000000000000000815260040161161d90614325565b60405180910390fd5b600160045f8581526020019081526020015f205f3373ffffffffffffffffffffffffffffffffffffffff1673ffffffffffffffffffffffffffffffffffffffff1681526020019081526020015f205f6101000a81548160ff02191690831515021790555060035f8481526020019081526020015f2033908060018154018082558091505060019003905f5260205f20015f9091909190916101000a81548173ffffffffffffffffffffffffffffffffffffffff021916908373ffffffffffffffffffffffffffffffffffffffff1602179055503373ffffffffffffffffffffffffffffffffffffffff16837f7f4b15de145103c2f48b4429df1c147497eb30d764058cdbdd0e7b7ad82d8fac60405160405180910390a3505050565b6060815f811180156117565750600a548111155b611795576040517f08c379a000000000000000000000000000000000000000000000000000000000815260040161178c90613d3f565b60405180910390fd5b60035f8481526020019081526020015f2080548060200260200160405190810160405280929190818152602001828054801561182357602002820191905f5260205f20905b815f9054906101000a900473ffffffffffffffffffffffffffffffffffffffff1673ffffffffffffffffffffffffffffffffffffffff16815260200190600101908083116117da575b5050505050915050919050565b606060025f8373ffffffffffffffffffffffffffffffffffffffff1673ffffffffffffffffffffffffffffffffffffffff1681526020019081526020015f208054806020026020016040519081016040528092919081815260200182805480156118b757602002820191905f5260205f20905b8154815260200190600101908083116118a3575b50505050509050919050565b805f811180156118d55750600a548111155b611914576040517f08c379a000000000000000000000000000000000000000000000000000000000815260040161190b90613d3f565b60405180910390fd5b813373ffffffffffffffffffffffffffffffffffffffff165f5f8381526020019081526020015f206001015f9054906101000a900473ffffffffffffffffffffffffffffffffffffffff1673ffffffffffffffffffffffffffffffffffffffff16146119b5576040517f08c379a00000000000000000000000000000000000000000000000000000000081526004016119ac90613f15565b60405180910390fd5b5f5f5f8581526020019081526020015f2090505f60058111156119db576119da6135b3565b5b816007015f9054906101000a900460ff1660058111156119fe576119fd6135b3565b5b1480611a3e575060016005811115611a1957611a186135b3565b5b816007015f9054906101000a900460ff166005811115611a3c57611a3b6135b3565b5b145b611a7d576040517f08c379a0000000000000000000000000000000000000000000000000000000008152600401611a749061438d565b60405180910390fd5b6004816007015f6101000a81548160ff02191690836005811115611aa457611aa36135b3565b5b0217905550806006015460085f836001015f9054906101000a900473ffffffffffffffffffffffffffffffffffffffff1673ffffffffffffffffffffffffffffffffffffffff1673ffffffffffffffffffffffffffffffffffffffff1681526020019081526020015f205f828254611b1c9190613465565b92505081905550837fc6eacc3aa5b2aa77b5a826b832a804ca0b71830ec74f9aa57a15edd978c31ed660405160405180910390a250505050565b5f5f5f60055f8573ffffffffffffffffffffffffffffffffffffffff1673ffffffffffffffffffffffffffffffffffffffff1681526020019081526020015f206040518060400160405290815f82015f9054906101000a900463ffffffff1663ffffffff1663ffffffff1681526020015f820160049054906101000a900463ffffffff1663ffffffff1663ffffffff168152505090505f816020015163ffffffff1603611c09575f5f9250925050611c44565b5f816020015163ffffffff166064835f015163ffffffff16611c2b91906143ab565b611c359190614419565b90508082602001519350935050505b915091565b60095f9054906101000a900473ffffffffffffffffffffffffffffffffffffffff1681565b5f73__$4215a0c1f54f7303b16505a9e0c1a15c24$__6365159c7a8a8a8a8a3489898d6040518963ffffffff1660e01b8152600401611cb49897969594939291906144b1565b5f6040518083038186803b158015611cca575f5ffd5b505af4158015611cdc573d5f5f3e3d5ffd5b50505050600a5f815480929190611cf290614522565b91905055505f604051806102000160405280600a5481526020013373ffffffffffffffffffffffffffffffffffffffff1681526020015f73ffffffffffffffffffffffffffffffffffffffff1681526020018b8b8080601f0160208091040260200160405190810160405280939291908181526020018383808284375f81840152601f19601f82011690508083019250505050505050815260200189898080601f0160208091040260200160405190810160405280939291908181526020018383808284375f81840152601f19601f82011690508083019250505050505050815260200160405180602001604052805f81525081526020013481526020015f6005811115611e0357611e026135b3565b5b81526020014281526020018581526020018481526020015f81526020015f81526020015f81526020018760ff166004811115611e4257611e416135b3565b5b6004811115611e5457611e536135b3565b5b8152602001868152509050805f5f600a5481526020019081526020015f205f820151815f01556020820151816001015f6101000a81548173ffffffffffffffffffffffffffffffffffffffff021916908373ffffffffffffffffffffffffffffffffffffffff1602179055506040820151816002015f6101000a81548173ffffffffffffffffffffffffffffffffffffffff021916908373ffffffffffffffffffffffffffffffffffffffff1602179055506060820151816003019081611f1b9190614736565b506080820151816004019081611f319190614736565b5060a0820151816005019081611f479190614736565b5060c0820151816006015560e0820151816007015f6101000a81548160ff02191690836005811115611f7c57611f7b6135b3565b5b02179055506101008201518160080155610120820151816009015561014082015181600a015561016082015181600b015561018082015181600c01556101a082015181600d01556101c082015181600e015f6101000a81548160ff02191690836004811115611fee57611fed6135b3565b5b02179055506101e082015181600f015590505060015f3373ffffffffffffffffffffffffffffffffffffffff1673ffffffffffffffffffffffffffffffffffffffff1681526020019081526020015f20600a54908060018154018082558091505060019003905f5260205f20015f90919091909150553373ffffffffffffffffffffffffffffffffffffffff16600a547ffdeb0504d33b43fff68840b6892bb51ccb3e5a5a2ee200435b4e84a4e65e34d73487878b8b8f8f6040516120b9979695949392919061484f565b60405180910390a3600a5491505098975050505050505050565b825f811180156120e55750600a548111155b612124576040517f08c379a000000000000000000000000000000000000000000000000000000000815260040161211b90613d3f565b60405180910390fd5b5f8383905011612169576040517f08c379a000000000000000000000000000000000000000000000000000000000815260040161216090614901565b60405180910390fd5b6101f48383905011156121b1576040517f08c379a00000000000000000000000000000000000000000000000000000000081526004016121a890614969565b60405180910390fd5b5f5f5f8681526020019081526020015f209050806001015f9054906101000a900473ffffffffffffffffffffffffffffffffffffffff1673ffffffffffffffffffffffffffffffffffffffff163373ffffffffffffffffffffffffffffffffffffffff16148061226f5750806002015f9054906101000a900473ffffffffffffffffffffffffffffffffffffffff1673ffffffffffffffffffffffffffffffffffffffff163373ffffffffffffffffffffffffffffffffffffffff16145b6122ae576040517f08c379a00000000000000000000000000000000000000000000000000000000081526004016122a5906149f7565b60405180910390fd5b3373ffffffffffffffffffffffffffffffffffffffff16857f292bff4770606a86f9f84ecb1f9282201366f1079335df7a7062c946997729a08686426040516122f993929190614a15565b60405180910390a35050505050565b815f8111801561231a5750600a548111155b612359576040517f08c379a000000000000000000000000000000000000000000000000000000000815260040161235090613d3f565b60405180910390fd5b823373ffffffffffffffffffffffffffffffffffffffff165f5f8381526020019081526020015f206001015f9054906101000a900473ffffffffffffffffffffffffffffffffffffffff1673ffffffffffffffffffffffffffffffffffffffff16146123fa576040517f08c379a00000000000000000000000000000000000000000000000000000000081526004016123f190613f15565b60405180910390fd5b5f5f5f8681526020019081526020015f20905060036005811115612421576124206135b3565b5b816007015f9054906101000a900460ff166005811115612444576124436135b3565b5b14612484576040517f08c379a000000000000000000000000000000000000000000000000000000000815260040161247b90614a8f565b60405180910390fd5b60065f8681526020019081526020015f205f9054906101000a900460ff16156124e2576040517f08c379a00000000000000000000000000000000000000000000000000000000081526004016124d990614af7565b60405180910390fd5b60018460ff16101580156124fa575060058460ff1611155b612539576040517f08c379a000000000000000000000000000000000000000000000000000000000815260040161253090614b5f565b60405180910390fd5b600160065f8781526020019081526020015f205f6101000a81548160ff0219169083151502179055505f60055f836002015f9054906101000a900473ffffffffffffffffffffffffffffffffffffffff1673ffffffffffffffffffffffffffffffffffffffff1673ffffffffffffffffffffffffffffffffffffffff1681526020019081526020015f2090508460ff16815f015f8282829054906101000a900463ffffffff166125e99190614b7d565b92506101000a81548163ffffffff021916908363ffffffff1602179055506001815f0160048282829054906101000a900463ffffffff1661262a9190614b7d565b92506101000a81548163ffffffff021916908363ffffffff160217905550816002015f9054906101000a900473ffffffffffffffffffffffffffffffffffffffff1673ffffffffffffffffffffffffffffffffffffffff163373ffffffffffffffffffffffffffffffffffffffff16877f085ed4e764c1602cd0ecb983514b46996262546308750a5b0b50689d818f6cae886040516126c99190614bb4565b60405180910390a4505050505050565b805f811180156126eb5750600a548111155b61272a576040517f08c379a000000000000000000000000000000000000000000000000000000000815260040161272190613d3f565b60405180910390fd5b5f5f5f8481526020019081526020015f20905060026005811115612751576127506135b3565b5b816007015f9054906101000a900460ff166005811115612774576127736135b3565b5b146127b4576040517f08c379a00000000000000000000000000000000000000000000000000000000081526004016127ab90613f7d565b60405180910390fd5b5f81600b0154036127fa576040517f08c379a00000000000000000000000000000000000000000000000000000000081526004016127f190614c17565b60405180910390fd5b80600b01544211612840576040517f08c379a000000000000000000000000000000000000000000000000000000000815260040161283790614c7f565b60405180910390fd5b61284b8360016130db565b505050565b815f811180156128625750600a548111155b6128a1576040517f08c379a000000000000000000000000000000000000000000000000000000000815260040161289890613d3f565b60405180910390fd5b823373ffffffffffffffffffffffffffffffffffffffff165f5f8381526020019081526020015f206002015f9054906101000a900473ffffffffffffffffffffffffffffffffffffffff1673ffffffffffffffffffffffffffffffffffffffff1614612942576040517f08c379a000000000000000000000000000000000000000000000000000000000815260040161293990614ce7565b60405180910390fd5b5f5f5f8681526020019081526020015f20905060036005811115612969576129686135b3565b5b816007015f9054906101000a900460ff16600581111561298c5761298b6135b3565b5b146129cc576040517f08c379a00000000000000000000000000000000000000000000000000000000081526004016129c390614a8f565b60405180910390fd5b60075f8681526020019081526020015f205f9054906101000a900460ff1615612a2a576040517f08c379a0000000000000000000000000000000000000000000000000000000008152600401612a2190614d4f565b60405180910390fd5b60018460ff1610158015612a42575060058460ff1611155b612a81576040517f08c379a0000000000000000000000000000000000000000000000000000000008152600401612a7890614b5f565b60405180910390fd5b600160075f8781526020019081526020015f205f6101000a81548160ff0219169083151502179055505f60055f836001015f9054906101000a900473ffffffffffffffffffffffffffffffffffffffff1673ffffffffffffffffffffffffffffffffffffffff1673ffffffffffffffffffffffffffffffffffffffff1681526020019081526020015f2090508460ff16815f015f8282829054906101000a900463ffffffff16612b319190614b7d565b92506101000a81548163ffffffff021916908363ffffffff1602179055506001815f0160048282829054906101000a900463ffffffff16612b729190614b7d565b92506101000a81548163ffffffff021916908363ffffffff160217905550816001015f9054906101000a900473ffffffffffffffffffffffffffffffffffffffff1673ffffffffffffffffffffffffffffffffffffffff163373ffffffffffffffffffffffffffffffffffffffff16877f085ed4e764c1602cd0ecb983514b46996262546308750a5b0b50689d818f6cae88604051612c119190614bb4565b60405180910390a4505050505050565b60095f9054906101000a900473ffffffffffffffffffffffffffffffffffffffff1673ffffffffffffffffffffffffffffffffffffffff163373ffffffffffffffffffffffffffffffffffffffff1614612cb0576040517f08c379a0000000000000000000000000000000000000000000000000000000008152600401612ca790614db7565b60405180910390fd5b5f600b5490505f8111612cf8576040517f08c379a0000000000000000000000000000000000000000000000000000000008152600401612cef90614e1f565b60405180910390fd5b5f600b819055505f60095f9054906101000a900473ffffffffffffffffffffffffffffffffffffffff1673ffffffffffffffffffffffffffffffffffffffff1682604051612d4590613e4f565b5f6040518083038185875af1925050503d805f8114612d7f576040519150601f19603f3d011682016040523d82523d5f602084013e612d84565b606091505b5050905080612dc8576040517f08c379a0000000000000000000000000000000000000000000000000000000008152600401612dbf90614e87565b60405180910390fd5b5050565b825f81118015612dde5750600a548111155b612e1d576040517f08c379a0000000000000000000000000000000000000000000000000000000008152600401612e1490613d3f565b60405180910390fd5b833373ffffffffffffffffffffffffffffffffffffffff165f5f8381526020019081526020015f206002015f9054906101000a900473ffffffffffffffffffffffffffffffffffffffff1673ffffffffffffffffffffffffffffffffffffffff1614612ebe576040517f08c379a0000000000000000000000000000000000000000000000000000000008152600401612eb590614ce7565b60405180910390fd5b5f5f5f8781526020019081526020015f20905060016005811115612ee557612ee46135b3565b5b816007015f9054906101000a900460ff166005811115612f0857612f076135b3565b5b14612f48576040517f08c379a0000000000000000000000000000000000000000000000000000000008152600401612f3f90614eef565b60405180910390fd5b80600a0154421115612f8f576040517f08c379a0000000000000000000000000000000000000000000000000000000008152600401612f8690614f57565b60405180910390fd5b5f8585905011612fd4576040517f08c379a0000000000000000000000000000000000000000000000000000000008152600401612fcb90614fbf565b60405180910390fd5b6002816007015f6101000a81548160ff02191690836005811115612ffb57612ffa6135b3565b5b02179055508484826005019182613013929190614fe7565b505f61301d613319565b426130289190613465565b90508082600b01819055503373ffffffffffffffffffffffffffffffffffffffff16877f1ab2c8b3db130b04659c610d59cd31e68a4d43f1e7b4cdb8e98d9571c9c6bfd688888560405161307e93929190614a15565b60405180910390a350505050505050565b600b5481565b5f60085f8373ffffffffffffffffffffffffffffffffffffffff1673ffffffffffffffffffffffffffffffffffffffff1681526020019081526020015f20549050919050565b5f5f5f8481526020019081526020015f2090506003816007015f6101000a81548160ff02191690836005811115613115576131146135b3565b5b02179055504281600d01819055505f6131318260060154613323565b90505f613141836006015461334b565b905081600b5f8282546131549190613465565b925050819055508060085f856002015f9054906101000a900473ffffffffffffffffffffffffffffffffffffffff1673ffffffffffffffffffffffffffffffffffffffff1673ffffffffffffffffffffffffffffffffffffffff1681526020019081526020015f205f8282546131ca9190613465565b92505081905550831561326557826002015f9054906101000a900473ffffffffffffffffffffffffffffffffffffffff1673ffffffffffffffffffffffffffffffffffffffff163373ffffffffffffffffffffffffffffffffffffffff16867fefad3afa6b79c0bbfb3bf6507f8bbb4b6778fa3f6ddcd95f8dde0647b265404d846040516132589190613933565b60405180910390a4613312565b826002015f9054906101000a900473ffffffffffffffffffffffffffffffffffffffff1673ffffffffffffffffffffffffffffffffffffffff16836001015f9054906101000a900473ffffffffffffffffffffffffffffffffffffffff1673ffffffffffffffffffffffffffffffffffffffff16867fe3f057fcd0107b02b650fbf4e8ee96f7599fe2d2af2dd438524bbadf86ade049846040516133099190613933565b60405180910390a45b5050505050565b5f6203f480905090565b5f61271061332f613367565b8361333a91906143ab565b6133449190614419565b9050919050565b5f61335582613323565b8261336091906150b4565b9050919050565b5f60c8905090565b6040518061020001604052805f81526020015f73ffffffffffffffffffffffffffffffffffffffff1681526020015f73ffffffffffffffffffffffffffffffffffffffff1681526020016060815260200160608152602001606081526020015f81526020015f60058111156133e7576133e66135b3565b5b81526020015f81526020015f81526020015f81526020015f81526020015f81526020015f81526020015f6004811115613423576134226135b3565b5b81526020015f81525090565b5f819050919050565b7f4e487b71000000000000000000000000000000000000000000000000000000005f52601160045260245ffd5b5f61346f8261342f565b915061347a8361342f565b925082820190508082111561349257613491613438565b5b92915050565b5f5ffd5b5f5ffd5b6134a98161342f565b81146134b3575f5ffd5b50565b5f813590506134c4816134a0565b92915050565b5f602082840312156134df576134de613498565b5b5f6134ec848285016134b6565b91505092915050565b6134fe8161342f565b82525050565b5f73ffffffffffffffffffffffffffffffffffffffff82169050919050565b5f61352d82613504565b9050919050565b61353d81613523565b82525050565b5f81519050919050565b5f82825260208201905092915050565b8281835e5f83830152505050565b5f601f19601f8301169050919050565b5f61358582613543565b61358f818561354d565b935061359f81856020860161355d565b6135a88161356b565b840191505092915050565b7f4e487b71000000000000000000000000000000000000000000000000000000005f52602160045260245ffd5b600681106135f1576135f06135b3565b5b50565b5f819050613601826135e0565b919050565b5f613610826135f4565b9050919050565b61362081613606565b82525050565b60058110613637576136366135b3565b5b50565b5f81905061364782613626565b919050565b5f6136568261363a565b9050919050565b6136668161364c565b82525050565b5f819050919050565b61367e8161366c565b82525050565b5f61020083015f83015161369a5f8601826134f5565b5060208301516136ad6020860182613534565b5060408301516136c06040860182613534565b50606083015184820360608601526136d8828261357b565b915050608083015184820360808601526136f2828261357b565b91505060a083015184820360a086015261370c828261357b565b91505060c083015161372160c08601826134f5565b5060e083015161373460e0860182613617565b506101008301516137496101008601826134f5565b5061012083015161375e6101208601826134f5565b506101408301516137736101408601826134f5565b506101608301516137886101608601826134f5565b5061018083015161379d6101808601826134f5565b506101a08301516137b26101a08601826134f5565b506101c08301516137c76101c086018261365d565b506101e08301516137dc6101e0860182613675565b508091505092915050565b5f6020820190508181035f8301526137ff8184613684565b905092915050565b61381081613523565b811461381a575f5ffd5b50565b5f8135905061382b81613807565b92915050565b5f6020828403121561384657613845613498565b5b5f6138538482850161381d565b91505092915050565b5f81519050919050565b5f82825260208201905092915050565b5f819050602082019050919050565b5f61389083836134f5565b60208301905092915050565b5f602082019050919050565b5f6138b28261385c565b6138bc8185613866565b93506138c783613876565b805f5b838110156138f75781516138de8882613885565b97506138e98361389c565b9250506001810190506138ca565b5085935050505092915050565b5f6020820190508181035f83015261391c81846138a8565b905092915050565b61392d8161342f565b82525050565b5f6020820190506139465f830184613924565b92915050565b5f5f6040838503121561396257613961613498565b5b5f61396f858286016134b6565b92505060206139808582860161381d565b9150509250929050565b5f81519050919050565b5f82825260208201905092915050565b5f819050602082019050919050565b5f6139be8383613534565b60208301905092915050565b5f602082019050919050565b5f6139e08261398a565b6139ea8185613994565b93506139f5836139a4565b805f5b83811015613a25578151613a0c88826139b3565b9750613a17836139ca565b9250506001810190506139f8565b5085935050505092915050565b5f6020820190508181035f830152613a4a81846139d6565b905092915050565b5f63ffffffff82169050919050565b613a6a81613a52565b82525050565b5f604082019050613a835f830185613924565b613a906020830184613a61565b9392505050565b613aa081613523565b82525050565b5f602082019050613ab95f830184613a97565b92915050565b5f5ffd5b5f5ffd5b5f5ffd5b5f5f83601f840112613ae057613adf613abf565b5b8235905067ffffffffffffffff811115613afd57613afc613ac3565b5b602083019150836001820283011115613b1957613b18613ac7565b5b9250929050565b5f60ff82169050919050565b613b3581613b20565b8114613b3f575f5ffd5b50565b5f81359050613b5081613b2c565b92915050565b613b5f8161366c565b8114613b69575f5ffd5b50565b5f81359050613b7a81613b56565b92915050565b5f5f5f5f5f5f5f5f60c0898b031215613b9c57613b9b613498565b5b5f89013567ffffffffffffffff811115613bb957613bb861349c565b5b613bc58b828c01613acb565b9850985050602089013567ffffffffffffffff811115613be857613be761349c565b5b613bf48b828c01613acb565b96509650506040613c078b828c01613b42565b9450506060613c188b828c01613b6c565b9350506080613c298b828c016134b6565b92505060a0613c3a8b828c016134b6565b9150509295985092959890939650565b5f5f5f60408486031215613c6157613c60613498565b5b5f613c6e868287016134b6565b935050602084013567ffffffffffffffff811115613c8f57613c8e61349c565b5b613c9b86828701613acb565b92509250509250925092565b5f5f60408385031215613cbd57613cbc613498565b5b5f613cca858286016134b6565b9250506020613cdb85828601613b42565b9150509250929050565b5f82825260208201905092915050565b7f5461736b20646f6573206e6f74206578697374000000000000000000000000005f82015250565b5f613d29601383613ce5565b9150613d3482613cf5565b602082019050919050565b5f6020820190508181035f830152613d5681613d1d565b9050919050565b7f4e487b71000000000000000000000000000000000000000000000000000000005f52602260045260245ffd5b5f6002820490506001821680613da157607f821691505b602082108103613db457613db3613d5d565b5b50919050565b7f4e6f2062616c616e6365000000000000000000000000000000000000000000005f82015250565b5f613dee600a83613ce5565b9150613df982613dba565b602082019050919050565b5f6020820190508181035f830152613e1b81613de2565b9050919050565b5f81905092915050565b50565b5f613e3a5f83613e22565b9150613e4582613e2c565b5f82019050919050565b5f613e5982613e2f565b9150819050919050565b7f5472616e73666572206661696c656400000000000000000000000000000000005f82015250565b5f613e97600f83613ce5565b9150613ea282613e63565b602082019050919050565b5f6020820190508181035f830152613ec481613e8b565b9050919050565b7f4f6e6c792063726561746f7200000000000000000000000000000000000000005f82015250565b5f613eff600c83613ce5565b9150613f0a82613ecb565b602082019050919050565b5f6020820190508181035f830152613f2c81613ef3565b9050919050565b7f4e6f742070656e64696e6720617070726f76616c0000000000000000000000005f82015250565b5f613f67601483613ce5565b9150613f7282613f33565b602082019050919050565b5f6020820190508181035f830152613f9481613f5b565b9050919050565b7f4e6f20776f726b657200000000000000000000000000000000000000000000005f82015250565b5f613fcf600983613ce5565b9150613fda82613f9b565b602082019050919050565b5f6020820190508181035f830152613ffc81613fc3565b9050919050565b7f4e6f7420657870697261626c65000000000000000000000000000000000000005f82015250565b5f614037600d83613ce5565b915061404282614003565b602082019050919050565b5f6020820190508181035f8301526140648161402b565b9050919050565b7f4e6f74207061737420646561646c696e650000000000000000000000000000005f82015250565b5f61409f601183613ce5565b91506140aa8261406b565b602082019050919050565b5f6020820190508181035f8301526140cc81614093565b9050919050565b7f4e6f74206f70656e0000000000000000000000000000000000000000000000005f82015250565b5f614107600883613ce5565b9150614112826140d3565b602082019050919050565b5f6020820190508181035f830152614134816140fb565b9050919050565b7f4170706c7920646561646c696e652070617373656400000000000000000000005f82015250565b5f61416f601583613ce5565b915061417a8261413b565b602082019050919050565b5f6020820190508181035f83015261419c81614163565b9050919050565b7f496e76616c696420776f726b65720000000000000000000000000000000000005f82015250565b5f6141d7600e83613ce5565b91506141e2826141a3565b602082019050919050565b5f6020820190508181035f830152614204816141cb565b9050919050565b7f576f726b657220646964206e6f74206170706c790000000000000000000000005f82015250565b5f61423f601483613ce5565b915061424a8261420b565b602082019050919050565b5f6020820190508181035f83015261426c81614233565b9050919050565b7f43726561746f722063616e6e6f74206170706c790000000000000000000000005f82015250565b5f6142a7601483613ce5565b91506142b282614273565b602082019050919050565b5f6020820190508181035f8301526142d48161429b565b9050919050565b7f416c7265616479206170706c69656400000000000000000000000000000000005f82015250565b5f61430f600f83613ce5565b915061431a826142db565b602082019050919050565b5f6020820190508181035f83015261433c81614303565b9050919050565b7f43616e6e6f742063616e63656c206e6f770000000000000000000000000000005f82015250565b5f614377601183613ce5565b915061438282614343565b602082019050919050565b5f6020820190508181035f8301526143a48161436b565b9050919050565b5f6143b58261342f565b91506143c08361342f565b92508282026143ce8161342f565b915082820484148315176143e5576143e4613438565b5b5092915050565b7f4e487b71000000000000000000000000000000000000000000000000000000005f52601260045260245ffd5b5f6144238261342f565b915061442e8361342f565b92508261443e5761443d6143ec565b5b828204905092915050565b5f82825260208201905092915050565b828183375f83830152505050565b5f6144728385614449565b935061447f838584614459565b6144888361356b565b840190509392505050565b61449c8161342f565b82525050565b6144ab81613b20565b82525050565b5f60c0820190508181035f8301526144ca818a8c614467565b905081810360208301526144df81888a614467565b90506144ee6040830187614493565b6144fb6060830186614493565b6145086080830185614493565b61451560a08301846144a2565b9998505050505050505050565b5f61452c8261342f565b91507fffffffffffffffffffffffffffffffffffffffffffffffffffffffffffffffff820361455e5761455d613438565b5b600182019050919050565b7f4e487b71000000000000000000000000000000000000000000000000000000005f52604160045260245ffd5b5f819050815f5260205f209050919050565b5f6020601f8301049050919050565b5f82821b905092915050565b5f600883026145f27fffffffffffffffffffffffffffffffffffffffffffffffffffffffffffffffff826145b7565b6145fc86836145b7565b95508019841693508086168417925050509392505050565b5f819050919050565b5f61463761463261462d8461342f565b614614565b61342f565b9050919050565b5f819050919050565b6146508361461d565b61466461465c8261463e565b8484546145c3565b825550505050565b5f5f905090565b61467b61466c565b614686818484614647565b505050565b5b818110156146a95761469e5f82614673565b60018101905061468c565b5050565b601f8211156146ee576146bf81614596565b6146c8846145a8565b810160208510156146d7578190505b6146eb6146e3856145a8565b83018261468b565b50505b505050565b5f82821c905092915050565b5f61470e5f19846008026146f3565b1980831691505092915050565b5f61472683836146ff565b9150826002028217905092915050565b61473f82613543565b67ffffffffffffffff81111561475857614757614569565b5b6147628254613d8a565b61476d8282856146ad565b5f60209050601f83116001811461479e575f841561478c578287015190505b614796858261471b565b8655506147fd565b601f1984166147ac86614596565b5f5b828110156147d3578489015182556001820191506020850194506020810190506147ae565b868310156147f057848901516147ec601f8916826146ff565b8355505b6001600288020188555050505b505050505050565b61480e81613b20565b82525050565b61481d8161366c565b82525050565b5f61482e8385613ce5565b935061483b838584614459565b6148448361356b565b840190509392505050565b5f60c0820190506148625f83018a613924565b61486f6020830189613924565b61487c6040830188613924565b6148896060830187614805565b6148966080830186614814565b81810360a08301526148a9818486614823565b905098975050505050505050565b7f456d707479206d657373616765000000000000000000000000000000000000005f82015250565b5f6148eb600d83613ce5565b91506148f6826148b7565b602082019050919050565b5f6020820190508181035f830152614918816148df565b9050919050565b7f4d65737361676520746f6f206c6f6e67000000000000000000000000000000005f82015250565b5f614953601083613ce5565b915061495e8261491f565b602082019050919050565b5f6020820190508181035f83015261498081614947565b9050919050565b7f4f6e6c792063726561746f72206f7220776f726b65722063616e20636f6d6d655f8201527f6e74000000000000000000000000000000000000000000000000000000000000602082015250565b5f6149e1602283613ce5565b91506149ec82614987565b604082019050919050565b5f6020820190508181035f830152614a0e816149d5565b9050919050565b5f6040820190508181035f830152614a2e818587614823565b9050614a3d6020830184613924565b949350505050565b7f4e6f7420636f6d706c65746564000000000000000000000000000000000000005f82015250565b5f614a79600d83613ce5565b9150614a8482614a45565b602082019050919050565b5f6020820190508181035f830152614aa681614a6d565b9050919050565b7f416c726561647920726174656420776f726b65720000000000000000000000005f82015250565b5f614ae1601483613ce5565b9150614aec82614aad565b602082019050919050565b5f6020820190508181035f830152614b0e81614ad5565b9050919050565b7f537461727320312e2e35000000000000000000000000000000000000000000005f82015250565b5f614b49600a83613ce5565b9150614b5482614b15565b602082019050919050565b5f6020820190508181035f830152614b7681614b3d565b9050919050565b5f614b8782613a52565b9150614b9283613a52565b9250828201905063ffffffff811115614bae57614bad613438565b5b92915050565b5f602082019050614bc75f830184614805565b92915050565b7f4e6f2072657669657720646561646c696e6520736574000000000000000000005f82015250565b5f614c01601683613ce5565b9150614c0c82614bcd565b602082019050919050565b5f6020820190508181035f830152614c2e81614bf5565b9050919050565b7f52657669657720706572696f64206e6f74206f766572000000000000000000005f82015250565b5f614c69601683613ce5565b9150614c7482614c35565b602082019050919050565b5f6020820190508181035f830152614c9681614c5d565b9050919050565b7f4f6e6c792061737369676e656420776f726b65720000000000000000000000005f82015250565b5f614cd1601483613ce5565b9150614cdc82614c9d565b602082019050919050565b5f6020820190508181035f830152614cfe81614cc5565b9050919050565b7f416c72656164792072617465642063726561746f7200000000000000000000005f82015250565b5f614d39601583613ce5565b9150614d4482614d05565b602082019050919050565b5f6020820190508181035f830152614d6681614d2d565b9050919050565b7f4f6e6c79206f776e6572000000000000000000000000000000000000000000005f82015250565b5f614da1600a83613ce5565b9150614dac82614d6d565b602082019050919050565b5f6020820190508181035f830152614dce81614d95565b9050919050565b7f4e6f2066656573000000000000000000000000000000000000000000000000005f82015250565b5f614e09600783613ce5565b9150614e1482614dd5565b602082019050919050565b5f6020820190508181035f830152614e3681614dfd565b9050919050565b7f466565207472616e73666572206661696c6564000000000000000000000000005f82015250565b5f614e71601383613ce5565b9150614e7c82614e3d565b602082019050919050565b5f6020820190508181035f830152614e9e81614e65565b9050919050565b7f4e6f7420696e2070726f677265737300000000000000000000000000000000005f82015250565b5f614ed9600f83613ce5565b9150614ee482614ea5565b602082019050919050565b5f6020820190508181035f830152614f0681614ecd565b9050919050565b7f44656c697665727920646561646c696e652070617373656400000000000000005f82015250565b5f614f41601883613ce5565b9150614f4c82614f0d565b602082019050919050565b5f6020820190508181035f830152614f6e81614f35565b9050919050565b7f7375626d697373696f6e434944207265717569726564000000000000000000005f82015250565b5f614fa9601683613ce5565b9150614fb482614f75565b602082019050919050565b5f6020820190508181035f830152614fd681614f9d565b9050919050565b5f82905092915050565b614ff18383614fdd565b67ffffffffffffffff81111561500a57615009614569565b5b6150148254613d8a565b61501f8282856146ad565b5f601f83116001811461504c575f841561503a578287013590505b615044858261471b565b8655506150ab565b601f19841661505a86614596565b5f5b828110156150815784890135825560018201915060208501945060208101905061505c565b8683101561509e578489013561509a601f8916826146ff565b8355505b6001600288020188555050505b50505050505050565b5f6150be8261342f565b91506150c98361342f565b92508282039050818111156150e1576150e0613438565b5b9291505056fea2646970667358221220b681d134045ace27703661b8838a4b8367f7b355e11e87241c1ed1844415215864736f6c634300081c0033",
  "linkReferences": {
    "project/contracts/TaskLibrary.sol": {
      "TaskLibrary": [
        {
          "length": 20,
          "start": 7373
        }
      ]
    }
  },
  "deployedLinkReferences": {
    "project/contracts/TaskLibrary.sol": {
      "TaskLibrary": [
        {
          "length": 20,
          "start": 7281
        }
      ]
    }
  },
  "immutableReferences": {},
  "inputSourceName": "project/contracts/TaskMarketplace.sol",
  "buildInfoId": "solc-0_8_28-ccaaeeaf58a3387bf08fac6213a4e0faa51f7e41"
}